:040000008A11EB2F47
:100D3A0064008001840A04060319003404069E2E06
:100D4A007E088A007F0882008A11A5268A118000FF
:100D5A00840A04087D0603190034FF0A0319FE0AEF
:100D6A00A92E83160313850101308312031385000C
:100D7A008A11FB268A118312031385018A11FB2625
:100D8A008A11B92E8A11002894340034433400346D
:100D9A00FD3400340B34003424340034F534003488
:100DAA0000340034FF3400347F34003440340034DB
:100DBA0059340034323400340F340034633400348C
:100DCA00EA3400348034003401340034C834003446
:100DDA00213400345A340034373400344D3400346A
:100DEA007B340034DE340034BB34003400308312E8
:100DFA000313DD000030DC000030DB000030DA00D5
:100E0A005D08031D162F5C08031D162F5B08031DC2
:100E1A00162F19305A02031D122F031C152F162FD5
:100E2A00172FEA2F003083120313D9000030D8009D
:100E3A000030D7000030D6005908031D322F580859
:100E4A00031D322F5708031D322F18305602031D77
:100E5A002E2F031C312F322F332FD92F003083121C
:100E6A000313D5000030D4000030D3000030D20084
:100E7A009C2F5208E0006007203E8400831300087C
:100E8A00E100840A0008E2005208E3006307223EF8
:100E9A0084000008E400840A0008E5006508803A36
:100EAA00E6006208803A6602031D5D2F610864024B
:100EBA000318602F612F8C2F831203135208E0004E
:100ECA006007203E840083130008DE00840A0008BD
:100EDA00DF005208E0006007223E84000008E100BB
:100EEA00840A0008E2005208E3006307203E8400F7
:100EFA0061088000840A620880005208E0006007E6
:100F0A00223E84005E088000840A5F088000013067
:100F1A0083120313D207003003180130D3070030BD
:100F2A0003180130D407003003180130D5071830F0
:100F3A00E0000030E1000030E2000030E300560833
:100F4A00E0025708031C570FAB2FAC2FE1025808D9
:100F5A00031C580FB12FB22FE2025908031C590F74
:100F6A00B72FB82FE30263085502031DC62F620884
:100F7A005402031DC62F61085302031DC62F6008C1
:100F8A005202031CC92FCA2F3E2F0130D607003048
:100F9A0003180130D707003003180130D807003092
:100FAA0003180130D907212F013083120313DA07FE
:100FBA00003003180130DB07003003180130DC076A
:100FCA00003003180130DD07052F08008313523063
:100FDA00FD000630FE00C930FF00203084008A116F
:100FEA00A9268A115230840060308A119D268A11FE
:060FFA0083018A11B62EEE
:02400E007A3DF9
:00000001FF
