:040000008A11EB2F47
:100C3C007E088A007F0882008A111E268A11800095
:100C4C00840A04087D0603190034FF0A0319FE0AFE
:100C5C00222E8316031385010130831203138500A2
:100C6C008A1189268A118312031385018A11892618
:100C7C008A11322E8A11002883120313D400D30157
:100C8C00541C492E4A2E4C2E5208D3070310D20D59
:100C9C000310D40C5408031D542E552E462E530805
:100CAC000800583400340B34003402340034D4348B
:100CBC00FF340434003409340034B034FF340134CC
:100CCC000034023400340D34003402340034FF3468
:100CDC00FF340034003401340034283400345334ED
:100CEC000034E034FF347C340034463400340134B6
:100CFC000034043400340D340034FE34FF34013439
:100D0C0000345A34003483120313EB01EC0100302D
:100D1C006C02053003196B02031C952E962E972E30
:100D2C00EA2FE901EA0100306A0205300319690271
:100D3C00031CA12EA22EA32EDB2FE701E80100300D
:100D4C006802053003196702031CAD2EAE2EAF2EC0
:100D5C00CC2F6B08D50001300310D50DFF3E031DC1
:100D6C00B22E20305507D6000A30D20069088A11FD
:100D7C0042268A11831203135607D70057088400A2
:100D8C0083130008D800840A0008D900580A5904B3
:100D9C000319D12ED22EC32F6708D50001300310B2
:100DAC00D50DFF3E031DD52E20305507D6000A3039
:100DBC00D2006B088A1142268A118312031356073C
:100DCC00D7005708840083130008D800840A000851
:100DDC00D900580A59040319F42EF52EC32F6708AD
:100DEC00D50001300310D50DFF3E031DF82E203029
:100DFC005507D6000A30D20069088A1142268A119A
:100E0C00831203135607D700570884008313000876
:100E1C00D800840A0008D9006708DA0001300310F2
:100E2C00DA0DFF3E031D152F20305A07DB000A3068
:100E3C00D2006B088A1142268A11831203135B07B6
:100E4C00DC005C08840083130008DD00840A0008C1
:100E5C00DE006B08DF0001300310DF0DFF3E031DC9
:100E6C00322F20305F07E0000A30D20069088A1167
:100E7C0042268A11831203136007E1006108840083
:100E8C0083130008E200840A0008E3005D0862078F
:100E9C00E4005E0803185E0A6307E5006508803A03
:100EAC00E6005908803A6602031D5E2F580864025A
:100EBC000318612F622FC32F831203136708D50009
:100ECC0001300310D50DFF3E031D672F2030550751
:100EDC00D6000A30D2006B088A1142268A1183127E
:100EEC0003135607D7005708840083130008D80053
:100EFC00840A0008D9006B08DA0001300310DA0DFF
:100F0C00FF3E031D842F20305A07DB000A30D2002D
:100F1C0069088A1142268A11831203135B07DC00CD
:100F2C005C08840083130008DD00840A0008DE00DE
:100F3C0058085D07DF0059080318590A5E07E000DE
:100F4C006708E10001300310E10DFF3E031DA92FDE
:100F5C0020306107E2000A30D20069088A1142266B
:100F6C008A11831203136207E300630884005F088D
:100F7C0083138000840A60088000013083120313FD
:100F8C00E7070318E80A0030E807A52E0130E90747
:100F9C000318EA0A0030EA0700306A020530031928
:100FAC006902031CDA2FDB2FA32E0130EB07031889
:100FBC00EC0A0030EC0700306C02053003196B02B0
:100FCC00031CE92FEA2F972E080083135230FD00E3
:100FDC000630FE005730FF00203084008A11222694
:100FEC008A11E701E801E901EA01EB01EC01830157
:040FFC008A112F2EF9
:02400E007A3DF9
:00000001FF
