:040000008A11F62F3C
:1000160064008001840A04060319003404060C28CF
:10002600031083120313500D510DD7005708031DFB
:100036001D281E2827280030D1000030D0000030AF
:10004600CF000030CE0088284E08D2004F08D300DB
:100056005008D4005108D5001F300310D50CD40C1D
:10006600D30CD20CFF3E031D30285208D600D01701
:10007600FF30CE05FF30CF05FF30D0050030D1056B
:100086009630D702D71F4828492861285708803A52
:10009600973E03184F28502851281E280130031078
:1000A600D10CD00CCF0CCE0CFF3E031D52280130D4
:1000B600D707031D5F28602851287828203057026B
:1000C600031C6628672873281E280130D2000310F7
:1000D600CE0DCF0DD00DD10DD20B6A280130D7022F
:1000E6005708031D772878286828560803197C289E
:1000F6007D288828CE09CF09D009D109CE0A03194F
:10010600CF0A0319D00A0319D10A0800A9284030DA
:1001160083120313B700C930B6000F30B500DB30C9
:10012600B4006B08BB006A08BA006908B900680821
:10013600B8008A1568238A11831203133708EB0067
:100146003608EA003508E9003408E8004030831232
:100156000313A3004930A2000F30A100DB30A0003A
:100166006B08A7006A08A6006908A5006808A4002D
:100176008A1522248A11031CC128C2288A28E2284B
:10018600403083120313A300C930A2000F30A10030
:10019600DB30A0006B08A7006A08A6006908A50066
:1001A6006808A4008A1176228A1183120313230891
:1001B600EB002208EA002108E9002008E800831283
:1001C60003136B08A3006A08A2006908A100680867
:1001D600A000C030A7004930A6000F30A500DB30D4
:1001E600A4008A1522248A11031CFA28FB28C32896
:1001F600831203136B08B7006A08B6006908B500D6
:100206006808B4006B08BB006A08BA006908B90040
:100216006808B8008A11C6248A11831203133708A6
:1002260083160313EF008312031336088316031392
:10023600EE0083120313350883160313ED008312B1
:100246000313340883160313EC00831203136B089D
:1002560083160313EB00831203136A088316031332
:10026600EA0083120313690883160313E900831255
:100276000313680883160313E80040308312031340
:10028600D100C030D0000030CF000030CE00831641
:1002960003136F0883120313B700831603136E0844
:1002A60083120313B600831603136D088312031318
:1002B600B500831603136C0883120313B4006B088E
:1002C600BB006A08BA006908B9006808B8008A1154
:1002D600C6248A11831203133708D5003608D400C2
:1002E6003508D3003408D2008A1536268A118312BF
:1002F6000313510883160313E700831203135008F0
:1003060083160313E600831203134F0883160313A1
:10031600E500831203134E0883160313E4006F08E7
:1003260083120313B700831603136E088312031395
:10033600B600831603136D0883120313B5008316E4
:1003460003136C0883120313B4006B08BB006A081E
:10035600BA006908B9006808B8008A11C6248A116B
:10036600831203133708EF003608EE003508ED0058
:100376003408EC004230D100F030D0000030CF001D
:100386000030CE00831603136F0883120313B700E1
:10039600831603136E0883120313B6008316031322
:1003A6006D0883120313B500831603136C088312BA
:1003B6000313B4006F08BB006E08BA006D08B900DD
:1003C6006C08B8008A11C6248A11831203133708F1
:1003D600D5003608D4003508D3003408D2008A1573
:1003E60036268A1183120313510883160313E3007A
:1003F60083120313500883160313E20083120313B8
:100406004F0883160313E100831203134E08831665
:100416000313E000670883120313B7008316031360
:10042600660883120313B600831603136508831246
:100436000313B50083160313640883120313B40071
:10044600831603136B0883120313BB00831603136F
:100456006A0883120313BA0083160313690883120A
:100466000313B90083160313680883120313B80035
:100476008A1568238A11831203133708F300360896
:10048600F2003508F1003408F00083160313630800
:1004960083120313A3008316031362088312031344
:1004A600A20083160313610883120313A1008316A7
:1004B6000313600883120313A0007308A7007208D1
:1004C600A6007108A5007008A4008A1176228A1178
:1004D600831203132308EB002208EA002108E9002F
:1004E6002008E8000800831203132308B0008030B8
:1004F600B0052308A8002807B200A21F832A842A71
:10050600852A321432080319892A8A2A9A2A320A33
:10051600031D8E2A8F2A972A0030A3000030A200DE
:100526000030A1000030A000A217A301A22A0030CB
:10053600A3000030A2000030A1000030A000270870
:10054600B1008030B105310830060319AB2AAC2A58
:10055600AD2A30172708A8002807B100A61FB42A1D
:10056600B52AB62A311431080319BA2ABB2ACB2A6E
:10057600310A031DBF2AC02AC82A0030A70000304E
:10058600A6000030A5000030A400A617A701D32AB4
:100596000030A7000030A6000030A5000030A400FF
:1005A600320831020318D82AD92AFD2A301FDC2A3C
:1005B600DD2ADF2A8030B0063208B3003108B200E7
:1005C6003308B1002008B3002408A0003308A400B3
:1005D6002108B3002508A1003308A5002208B300AE
:1005E6002608A2003308A6002308B3002708A300A4
:1005F6003308A700B3013108A800A9012908AB00F8
:1006060032082802AA00031CAB032B08803AFF001D
:1006160080307F02031D112B1A302A02031C142B73
:10062600152B4A2B831203132308220421042004CA
:10063600031D1E2B202B0130212B0030B300003070
:10064600A3000030A2000030A1000030A000310855
:10065600B200522B331C302B312B382B3308A80019
:100666000310280C0138B3003A2B0310B30C201CDE
:100676003D2B3E2B3F2BB3170130A800230DA30CB7
:10068600A20CA10CA00CA80B412B0130B2078312BF
:10069600031331083202031C512B522B2D2B301B16
:1006A600552B562B9D2B3208031D5A2B5B2B642B87
:1006B6000030A3000030A2000030A1000030A000EE
:1006C600C52C2408A007250803110318013E0319A9
:1006D6006D2BA107260803110318013E0319742B7D
:1006E600A207270803110318013E03197B2BA30752
:1006F600231C7E2B7F2B512C331C822B832B8A2B86
:100706003308A8000310280C0138B3008C2B031003
:10071600B30C201C8F2B902B912BB3170130A80004
:10072600230DA30CA20CA10CA00CA80B932B01303B
:10073600B207512C2308803AFF002708803A7F022F
:10074600031DAF2B26082202031DAF2B250821020D
:10075600031DAF2B240820020318B22BB32B0A2C3F
:10076600FF30A800FF30A900FF30AA00FF30AB0021
:100776002408AC002508AD002608AE002708AF0007
:100786002008AC022108031C210FCA2BCB2BAD027B
:100796002208031C220FD02BD12BAE022308031CE8
:1007A600230FD62BD72BAF022C08A8072D0803182A
:1007B6002D0FDE2BDF2BA9072E0803182E0FE42B97
:1007C600E52BAA072F0803182F0AAB072B08A3004F
:1007D6002A08A2002908A1002808A0008030B00637
:1007E6003303FF3AB3003308031DFA2BFB2B182CF7
:1007F6000130A007003003180130A10700300318AC
:100806000130A207003003180130A307182C240872
:10081600A0022508031C250FA1022608031C260F8B
:10082600A2022708031C270FA3022308220421047F
:100836002004031D1F2C202C4D2C3308031D242CB3
:10084600252C4D2C0030A3000030A2000030A10062
:100856000030A000C52C0130A8000310A00DA10D8A
:10086600A20DA30DA80B302CB31F3A2C3B2C3C2C0D
:100876002014331C3F2C402C442C0314330DB3009E
:10088600462C0310B30D320803194A2C4B2C4D2C61
:100896000130B202A21F502C512C2E2CB101B31FD5
:1008A600552C562C642C33087F3903195B2C5C2C91
:1008B6005F2C0130B100642C201C622C632C642C4C
:1008C6005C2C31080319682C692C9B2C0130A0077D
:1008D600003003180130A107003003180130A207C9
:1008E600003003180130A307231C7A2C7B2C9B2C89
:1008F6002008A8002108A9002208AA002308AB00A6
:100906000130AC002B0DAB0CAA0CA90CA80CAC0B3F
:10091600852C2B08A3002A08A2002908A100280874
:10092600A000320A0319982C992C9B2C0130B2078F
:10093600320A03199F2CA02CA52C3208031DA42CC7
:10094600A52CB32C0030A3000030A2000030A1007B
:100956000030A0003208031DB12CB22CB32CB0011C
:10096600321CB62CB72CB92CA217BB2C7F30A20593
:100976003208A8000310280CA300B01FC32CC42CF7
:10098600C52CA3170800831203133708C100803053
:10099600C1053708BC003C07C700B61FD32CD42CB2
:1009A600D52C471447080319D92CDA2CE92C470A09
:1009B600031DDE2CDF2CE72C0030B7000030B6001C
:1009C6000030B5000030B400B617F12C0030B70087
:1009D6000030B6000030B5000030B4003B08803966
:1009E600C1063B08BC003C07C600BA1FFB2CFC2C0A
:1009F600FD2C461446080319012D022D112D460A19
:100A0600031D062D072D0F2D0030BB000030BA0048
:100A16000030B9000030B800BA17192D0030BB00FD
:100A26000030BA000030B9000030B800460803199B
:100A36001D2D1E2D232D4708031D222D232D2C2D64
:100A46000030B7000030B6000030B5000030B4000A
:100A5600F52F3408A0003A088A158A238A118312D2
:100A660003132108CD002008CC004C08BC00BD01B2
:100A7600BE01BF013F08C5003E08C4003D08C300D3
:100A86003C08C2004D08BC00BD01BE01BF013F08C5
:100A9600CB003E08CA003D08C9003C08C80035081E
:100AA600A00039088A158A238A11831203132108A4
:100AB600CD002008CC004C08BC00BD01BE01BF0122
:100AC6003C08C2073D0803110318013E03196C2DAB
:100AD600C3073E0803110318013E0319732DC4070B
:100AE6003F0803110318013E03197A2DC5074D0867
:100AF600BC00BD01BE01BF013C08C8073D0803118B
:100B06000318013E0319882DC9073E08031103186F
:100B1600013E03198F2DCA073F0803110318013E32
:100B26000319962DCB073608A00038088A158A23A4
:100B36008A11831203132108CD002008CC004C082B
:100B4600BC00BD01BE01BF013C08C2073D08031140
:100B56000318013E0319B02DC3073E0803110318FD
:100B6600013E0319B72DC4073F0803110318013EC0
:100B76000319BE2DC5074D08BC00BD01BE01BF014E
:100B86003C08C8073D0803110318013E0319CC2D84
:100B9600C9073E0803110318013E0319D32DCA07DE
:100BA6003F0803110318013E0319DA2DCB0708305D
:100BB600BC000310C20DC30DC40DC50DBC0BDC2D4E
:100BC6003508A00038088A158A238A118312031370
:100BD6002108CD002008CC004C08BC004D08BD0003
:100BE600BE01BF013C08C2073D0803110318013EC0
:100BF6000319FE2DC3073E0803110318013E03190E
:100C0600052EC4073F0803110318013E03190C2ED5
:100C1600C5073408A00039088A158A238A11831269
:100C260003132108CD002008CC004C08BC004D0859
:100C3600BD00BE01BF013C08C2073D0803110318F1
:100C4600013E0319272EC3073E0803110318013E70
:100C560003192E2EC4073F0803110318013E03197A
:100C6600352EC5070830BC000310C20DC30DC40DD8
:100C7600C50DBC0B372E3408A00038088A158A2308
:100C86008A11831203132108CD002008CC004C08DA
:100C9600BC004D08BD00BE01BF013C08C2073D08AF
:100CA60003110318013E0319592EC3073E08031109
:100CB6000318013E0319602EC4073F0803110318E9
:100CC600013E0319672EC5073508A0003A088A15A4
:100CD6008A238A11831203132108CD002008CC0031
:100CE6004C08BC004D08BD00BE01BF013C08C8074A
:100CF6003D0803110318013E0319822EC9073E0859
:100D060003110318013E0319892ECA073F08031170
:100D16000318013E0319902ECB073608A0003908A8
:100D26008A158A238A11831203132108CD0020080D
:100D3600CC004C08BC004D08BD00BE01BF013C08FC
:100D4600C8073D0803110318013E0319AB2EC90756
:100D56003E0803110318013E0319B22ECA073F08C5
:100D660003110318013E0319B92ECB073608A0005C
:100D76003A088A158A238A11831203132108CD00A3
:100D86002008CC004C08BC004D08BD00BE01BF01C8
:100D960008300310BC0DBD0DBE0DBF0DFF3E031D7B
:100DA600CC2E3C08C8073D0803110318013E031961
:100DB600DD2EC9073E0803110318013E0319E42E70
:100DC600CA073F0803110318013E0319EB2ECB0790
:100DD6004208BC004308BD004408BE004508BF00E9
:100DE60018300310BF0CBE0CBD0CBC0CFF3E031D1F
:100DF600F42E3C08C8073D0803110318013E0319E9
:100E0600052FC9073E0803110318013E03190C2FCD
:100E1600CA073F0803110318013E0319132FCB0716
:100E26000830BC000310C20DC30DC40DC50DBC0BAC
:100E3600152F47084607BC00BD01BD0D3C08823E84
:100E4600CC003D080318013EFF3ECD00472F013080
:100E5600BC000310C80DC90DCA0DCB0DBC0B2C2F41
:100E6600C51F362F372F382F48140130BC0003100A
:100E7600C20DC30DC40DC50DBC0B3A2FFF30CC07F8
:100E86000318CD0AFF30CD07CA1F4A2F4B2F2A2F32
:100E9600C601C51F4F2F502F6C2FFF304205BC00D7
:100EA600FF304305BD00FF304405BE007F304505D9
:100EB600BF003F083E043D043C040319632F642F22
:100EC600672F0130C6006C2F481C6A2F6B2F6C2FC2
:100ED600642F46080319702F712FA22F0130C807FF
:100EE600003003180130C907003003180130CA0763
:100EF600003003180130CB074B1C822F832FA22F03
:100F06004808BC004908BD004A08BE004B08BF009F
:100F16000130C0003F0DBF0CBE0CBD0CBC0CC00B9D
:100F26008D2F3F08CB003E08CA003D08C9003C088B
:100F3600C8000130CC070318CD0A0030CD074D0894
:100F4600803AFF0080307F02031DAB2FFF304C023A
:100F5600031CAE2FAF2FBA2F7F3083120313CB00A3
:100F66008030CA000030C9000030C800EB2F831261
:100F760003134D08803AFF0080307F02031DC52F02
:100F860001304C020318C82FC92FD52F0030831209
:100F96000313CB000030CA000030C9000030C8007F
:100FA600C101EB2F831203134C08C700FF30C8059D
:100FB600FF30C9057F30CA050030CB05471CE42F3A
:100FC600E52FE62FCA174708BC0003103C0CCB00E0
:100FD6004108CB044B08B7004A08B6004908B500DB
:100FE6004808B40008008313A0308400F6308A1144
:0A0FF6000B208A1183018A15552B88
:1016AA0083160313850101308312031385008A15FB
:1016BA007C258A158312031385018A157C258A15D0
:1016CA00582B8A110028803083120313B7063B086F
:1016DA00A3003A08A2003908A1003808A000370878
:1016EA00A7003608A6003508A5003408A4008A1108
:1016FA0076228A15831203132308B7002208B6003C
:10170A002108B5002008B400080083120313A800BA
:10171A00A401A5012008A200A3012208A60023080B
:10172A00A700281C992B9A2BA02B2608A40703187C
:10173A00A50A2708A50701300310A60DA70DFF3E2D
:10174A00031DA12B0310A80C2808031DAD2BAE2BDB
:10175A00962B2508A1002408A00008008312031371
:10176A007708EB007608EA007508E9007408E800D3
:10177A008A1189208A15831203136B0883160313AF
:10178A00DF00831203136A0883160313DE00831231
:10179A000313690883160313DD0083120313680811
:1017AA0083160313DC005F0883120313A700831652
:1017BA0003135E0883120313A600831603135D083E
:1017CA0083120313A500831603135C088312031301
:1017DA00A4003F30A3008030A2000030A1000030F6
:1017EA00A0008A1176228A15831203132308BB00EC
:1017FA002208BA002108B9002008B8004230B70010
:10180A00FF30B6000030B5000030B4008A11C6249B
:10181A008A15831203133708D1003608D000350819
:10182A00CF003408CE008A1113208A1583120313BD
:10183A004F08F5004E08F400080000308312031325
:10184A002005A80000302105A90080302205AA0041
:10185A007F302305AB002B082A0429042804031D22
:10186A00372C382C402C0030A3000030A200003066
:10187A00A1000030A00000302405A8000030250592
:10188A00A90080302605AA007F302705AB002B0867
:10189A002A0429042804031D532C542C5C2C0030E0
:1018AA00A7000030A6000030A5000030A400A31F46
:1018BA005F2C602C842C0030A8000030A900003076
:1018CA00AA008030AB002008A8022108031C210FBF
:1018DA006F2C702CA9022208031C220F752C762C5F
:1018EA00AA022308031C230F7B2C7C2CAB022B0897
:1018FA00A3002A08A2002908A1002808A000A71FFF
:10190A00872C882CAC2C0030A8000030A9000030AD
:10191A00AA008030AB002408A8022508031C250F62
:10192A00972C982CA9022608031C260F9D2C9E2C66
:10193A00AA022708031C270FA32CA42CAB022B08EE
:10194A00A7002A08A6002908A5002808A4008030B4
:10195A00A3068030A70627082302031DBE2C2608EB
:10196A002202031DBE2C25082102031DBE2C2408B9
:10197A0020020318C12CC22CC42C0310C52C03143A
:10198A00080083120313A80028080319CD2CCE2CB3
:10199A00E22CA31FD12CD22CE22C2009AA00210967
:1019AA00AB002209AC002309AD00AA0A0319AB0A4D
:1019BA000319AC0A0319AD0AEA2C2308AD00220860
:1019CA00AC002108AB002008AA0023082204210445
:1019DA002004031DF12CF22CFB2C0030A300003054
:1019EA00A2000030A1000030A0007B2D9630A90093
:1019FA00092D0130A90701300310AD0CAC0CAB0C5A
:101A0A00AA0CFF3E031D012DFE302D05031D0E2DD0
:101A1A000F2DFE2C292D0130A9070130AA0700300D
:101A2A0003180130AB07003003180130AC0700304F
:101A3A0003180130AD0701300310AD0CAC0CAB0C30
:101A4A00AA0CFF3E031D212DFF302D05031D2E2D4F
:101A5A002F2D102D3B2D0130A9020130A4000310B7
:101A6A00AA0DAB0DAC0DAD0DA40B342DAC1B3E2D48
:101A7A003F2D452D023029020318442D452D302DC6
:101A8A002918482D492D512DFF30AA05FF30AB05E5
:101A9A007F30AC05FF30AD050310A90C2908A4005E
:101AAA00A501A601A70118300310A40DA50DA60DC6
:101ABA00A70DFF3E031D592D2408AA042508AB04CF
:101ACA002608AC042708AD04280803196D2D6E2DCD
:101ADA00732DA31F712D722D732DAD172D08A30021
:101AEA002C08A2002B08A1002A08A00008008316CF
:101AFA000313F401F5017508803AFF0080307F0274
:101B0A00031D892D1E307402031C8C2D8D2D8E2DE4
:101B1A00352E403083120313B7000030B600003070
:101B2A00B5000030B400831603137408831203133C
:101B3A00A00083160313750883120313A100003053
:101B4A00A11BFF30A200A30001308A15C6248A1502
:101B5A00831203132308BB002208BA002108B90024
:101B6A002008B8008A11C6248A158312031337087D
:101B7A00FC003608FB003508FA003408F900413049
:101B8A00D100F030D0000030CF000030CE0040301D
:101B9A00B7004930B6000F30B500DB30B4007C081E
:101BAA00BB007B08BA007A08B9007908B8008A1124
:101BBA00C6248A15831203133708D5003608D400C1
:101BCA003508D3003408D2008A1536268A158312BE
:101BDA000313510883160313F300831203135008E7
:101BEA0083160313F200831203134F088316031399
:101BFA00F100831203134E0883160313F0007308CF
:101C0A0083120313F7008316031372088312031354
:101C1A00F60083160313710883120313F500831663
:101C2A000313700883120313F4008A15B3238A1569
:101C3A0083160313740883120313F8007807A03E6F
:101C4A008400740883138000840A750880000130B8
:101C5A0083160313F4070318F50A0030F507802DDD
:101C6A000800831203135508DF008030DF0555088A
:101C7A00D6005607E600D41F432E442E452E66147E
:101C8A0066080319492E4A2E5A2E660A031D4E2E3D
:101C9A004F2E572E0030D5000030D4000030D3002C
:101CAA000030D200D417D501622E0030D5000030A2
:101CBA00D4000030D3000030D20051088039DF064A
:101CCA005108D6005607E700D01F6C2E6D2E6E2ED7
:101CDA00671467080319722E732E832E670A031D71
:101CEA00772E782E802E0030D1000030D0000030C0
:101CFA00CF000030CE00D017D1018B2E0030D1009A
:101D0A000030D0000030CF000030CE00510850041F
:101D1A004F044E04031D922E932EAA2E0030D50096
:101D2A000030D4000030D3000030D2008030D40418
:101D3A007F30D5045F08D5045508D1005408D00077
:101D4A005308CF005208CE00FF2F6608031DAE2E9F
:101D5A00AF2EB82E0030D1000030D0000030CF00B6
:101D6A000030CE00FF2F6608D600D7015708D900E9
:101D7A0067085602D800031CD90358087F3EE000C2
:101D8A0059080318013E003EE1005508DE005408D8
:101D9A00DD005308DC005208DB000030D5000030BB
:101DAA00D4000030D3000030D2000030E50000300B
:101DBA00E4000030E3000030E200E7012C2F67085E
:101DCA000319E82EE92E092F0130D6000310DB0D86
:101DDA00DC0DDD0DDE0DD60BEB2E0130D600031027
:101DEA00D20DD30DD40DD50DD60BF42EE51FFE2E34
:101DFA00FF2E002F52140130D6000310E20DE30D1E
:101E0A00E40DE50DD60B022F51085E02031D172FB4
:101E1A0050085D02031D172F4F085C02031D172F80
:101E2A004E085B02031C1A2F1B2F2A2F65174E0818
:101E3A00DB024F08031C4F0FDC025008031C500F33
:101E4A00DD025108031C510FDE020130E7071A3088
:101E5A006702031C312F322FE42E5E085D045C04F6
:101E6A005B040319392F3A2F592F6214592F013065
:101E7A00D6000310D20DD30DD40DD50DD60B3E2F9F
:101E8A00E51F482F492F4A2F52140130D60003105C
:101E9A00E20DE30DE40DE50DD60B4C2FFF30E00704
:101EAA000318E10AFF30E107D41F5C2F5D2F3C2F96
:101EBA00E701E51F612F622F7E2FFF306205D600F2
:101ECA00FF306305D700FF306405D8007F30650511
:101EDA00D90059085804570456040319752F762F48
:101EEA00792F0130E7007E2F521C7C2F7D2F7E2F09
:101EFA00762F67080319822F832FB42F0130D20758
:101F0A00003003180130D307003003180130D4071A
:101F1A00003003180130D507551C942F952FB42F84
:101F2A005208D6005308D7005408D8005508D900DB
:101F3A000130DA00590DD90CD80CD70CD60CDA0BB3
:101F4A009F2F5908D5005808D4005708D3005608BF
:101F5A00D2000130E0070318E10A0030E107610806
:101F6A00803AFF0080307F02031DBD2FFF306002E0
:101F7A00031CC02FC12FCF2FFF3083120313E000A1
:101F8A000030E1000030D5000030D4000030D3002A
:101F9A000030D200831203136108803AFF008030B8
:101FAA007F02031DDA2F013060020318DD2FDE2FB6
:101FBA00EB2F83120313E001E1010030D50000305A
:101FCA00D4000030D3000030D200DF0183120313A3
:101FDA006008E600661CF22FF32FF52FD417F72FAF
:101FEA007F30D4056608D6000310560CD5005F086A
:061FFA00D504A12E080031
:02400E007A3DF9
:00000001FF
