:0300000002091AD8
:0C091A00787FE4F6D8FD75813F0209618A
:1009A600023E0000023A0000023C0000203208002D
:1009B60058000B0002FFD400040009FFB00001003C
:1009C60002000D0002FFFF0000000100280053FF97
:1009D600E0007C004600010004000DFFFE0001005F
:0109E6005AB6
:0E09E800759001120800E4F59012080080F2EC
:10080000E4F53EF53FE4F53AF53BE4F53CF53DAF64
:100810003BEF75F00AA42408F8AF3FEF25E028F875
:10082000E6FE08E6F44E70030208E0AF3FEF75F015
:100830000AA42408F8AF3DEF25E028F8E6FE08E614
:10084000F44E70030208E0AF3FEF75F00AA42408ED
:10085000F8AF3DEF25E028F8E6FE08E6FFAD3BEDFA
:1008600075F00AA42408F8AD3FED25E028F8E6FC71
:1008700008E62FFFEC3EFEAD3BED75F00AA4240820
:10088000F8AD3DED25E028F8E6FC08E6FDC3EF9D58
:10089000EC6480F8EE6480985046AF3FEF75F00A44
:1008A000A42408F8AF3DEF25E028F8E6FE08E6FFAF
:1008B000AD3BED75F00AA42408F8AD3FED25E02826
:1008C000F8E6FC08E62FFFEC3EFEAD3BED75F00AC6
:1008D000A42408F8AD3DED25E028F8A60608A607F3
:1008E000053DE53D7002053CE53D6405453C600382
:1008F00002080F053BE53B7002053AE53B64054500
:100900003A600302080A053FE53F7002053EE53FF5
:0A0910006405453E6003020805225D
:100926000209E8E493A3F8E493A34003F68001F2F6
:1009360008DFF48029E493A3F85407240CC8C333D2
:10094600C4540F4420C8834004F456800146F6DFA1
:10095600E4800B01020408102040809009A6E47E82
:10096600019360BCA3FF543F30E509541FFEE49396
:10097600A360010ECF54C025E060A840B8E493A35D
:10098600FAE493A3F8E493A3C8C582C8CAC583CA88
:10099600F0A3C8C582C8CAC583CADFE9DEE780BE40
:0109E700000F
:00000001FF
