:03000000020940B2
:0C094000787FE4F6D8FD75814702098736
:1009CC0020320E0094004300FD000B002400F500C3
:1009DC000000FF007F004000590032000F00630050
:1009EC00EA0080000100C80021005A0037004D00C9
:0509FC007B00DE00BBE2
:0E0A1300759001120800E4F59012080080F2C0
:10080000E4F50DF50CF50BF50AE47F19FEFDFCABE4
:100810000DAA0CA90BA80AC3120A02400302093F41
:10082000E4F543F542F541F540E47F18FEFDFCABED
:1008300043AA42A941A840C3120A02400302092365
:10084000E4F547F546F545F544C374189543FFE4D0
:100850009542FEE49541FDE49540FCAB47AA46A9CC
:1008600045A844C3120A024003020907AF47AE4637
:10087000AD45AC44EF25E02410F8E6FE08E6FFABFA
:1008800047AA46A945A844EB25E0240EF8E6FC0853
:10089000E6D39FEE6480F8EC648098404EAF47AE9C
:1008A00046AD45AC44EF25E0240EF8E6F50808E631
:1008B000F509AF47AE46AD45AC44EF25E02410F84E
:1008C000E6FE08E6FFAB47AA46A945A844EB25E0AB
:1008D000240EF8A60608A607AF47AE46AD45AC44C1
:1008E000EF25E02410F8A60808A609AF47AE46ADEC
:1008F00045AC44EF2401F547E43EF546E43DF545BB
:10090000E43CF544020849AF43AE42AD41AC40EF90
:100910002401F543E43EF542E43DF541E43CF54075
:10092000020829AF0DAE0CAD0BAC0AEF2401F50D9A
:10093000E43EF50CE43DF50BE43CF50A020809221F
:10094C00020A13E493A3F8E493A34003F68001F2A4
:10095C0008DFF48029E493A3F85407240CC8C333AC
:10096C00C4540F4420C8834004F456800146F6DF7B
:10097C00E4800B01020408102040809009CCE47E36
:10098C00019360BCA3FF543F30E509541FFEE49370
:10099C00A360010ECF54C025E060A840B8E493A337
:1009AC00FAE493A3F8E493A3C8C582C8CAC583CA62
:1009BC00F0A3C8C582C8CAC583CADFE9DEE780BE1A
:010A010000F4
:100A0200EB9FF5F0EA9E42F0E99D42F0E89C45F04A
:010A120022C1
:00000001FF
