:03000000020D7975
:0C0D7900787FE4F6D8FD758161020D6BF7
:0E0D6B00759001120CE9E4F590120CE980F28B
:100BE400802A7FDB7E0F7D497C40AB61AA60A95FD0
:100BF400A85E120A9E601F401DAF61AE60AD5FAC7F
:100C04005E7BDB7A0F79C978401208038F618E60AE
:100C14008D5F8C5E80CC7FDB7E0F7D497CC0AB61B9
:100C2400AA60A95FA85E120A9E501DAF61AE60ADB6
:100C34005FAC5E7BDB7A0F79C978401208078F615D
:100C44008E608D5F8C5E80CEAF61AE60AD5FAC5E5A
:100C5400A804A905AA06AB071208F88F478E468D8B
:100C6400458C44AE60AD5FAC5E8561558E548D534A
:100C74008C52AF47AE46AD45AC44AB61AA60A95FA8
:100C8400A85E1208F8E4FBFA79C07840120A018FD2
:100C9400598E588D578C56AF47AE46AD45AC44ABD4
:100CA40061AA60A95FA85E1208F8AB47AA46A945E5
:100CB400A8441208F8E4FBFA79F07842120A018F8A
:100CC4005D8E5C8D5B8C5AAB59AA58A957A856AF58
:100CD40055AE54AD53AC52120803AB5DAA5CA95B8C
:050CE400A85A020807F8
:100D4100120BE48F4B8E4A8D498C48E4FFFE7D8067
:100D51007C3FAB4BAA4AA949A848120807E4FBFA11
:0A0D610079FF78421208F8020B55E2
:100CE900E4F550F551AC50AD51EC120B1C7BDB7A9D
:100CF9000F79C978401208F8E4FBFA79F0784112C3
:100D09000A018F4F8E4E8D4D8C4CAF4FAE4EAD4D6F
:100D1900AC4C120D41AD51ED25E02408F8A60608AA
:100D2900A6070551E55170020550C3E551941EE52A
:080D3900506480948040AE225A
:10080000020BC1E86480F8E933E83360110460F05A
:10081000ED33EC337009E8FCE9FDEAFEEBFF22045E
:1008200060DED3EB9FEA9EE99DE8C2E78CF0C2F759
:1008300095F0400CE8CCF8E9CDF9EACEFAEBCFFB25
:10084000120B8C85D0F05804700320D5B3E80470E7
:10085000075002B2D5020BCB92D5EC0460F7E4CC82
:10086000C0E0C398F8603B94186008400DD0E0FBEE
:10087000020BA3E4FBFAC9FC8028E830E406E4C9D3
:10088000FBE4CAFCE830E305E4C9CACBFCE8540742
:100890006010F8C3E913F9EA13FAEB13FBEC13FC4D
:1008A000D8F130F52FC3E49CFCEF9BFFEE9AFEEDF0
:1008B00099FDD0E0FBEF4E4D4C701222DB03020B92
:1008C000C8EC2CFCEF33FFEE33FEED33FDED30E7EB
:1008D000EB020BA3EF2BFFEE3AFEED39FDD0E0FB70
:1008E00050130BBB0003020BCBED13FDEE13FEEF19
:0808F00013FFEC13FC020BA343
:1008F800EC4D6011E8497017ED33EC3304600DE4FA
:10090800FCFFFEFD22E933E8330470F8020BC11244
:100918000B8C58046009E4CC248150062850090245
:100928000BCB284003020BC8C0E0EB4A7044B980E7
:1009380006D0E0FB020BB7EF4E701CBD8008EBFF42
:10094800EAFEE9FD80EBE98DF0A4FEE5F00209E19D
:10095800E9CDF9EAFEEBFFEF89F0A4FCE5F0CE89DA
:10096800F0A42EFFE435F0CD89F0A42DFEE435F097
:100978008067EF4E7005BD80D780C3EF8BF0A4ACC5
:10098800F0EE8BF0A42CFCE435F0F8EF8AF0A42C00
:10099800E5F038FCE433CB8DF0A42CFCE5F03BF813
:1009A800EE8AF0A42CFCE5F038F8E433CF89F0A403
:1009B8002CFCE5F038CF3400CE89F0A42FFFE5F009
:1009C8003EFEE433C98DF0A42EFEE5F039CD8AF061
:1009D800A42FFFE5F03EFEE43DFD33D0E0FB5007D9
:1009E8000BBB000F020BCBEC2CFCEF33FFEE33FEFE
:0609F800ED33FD020BA32C
:1009FE00020BCBEC5D046005E859047003020BC1D9
:100A0E00120B8C580460F6EC4860F2EC7004FDFE9C
:100A1E00FF22C860DB2481C85009C39860025006CB
:100A2E00020BC89850CAF582E9294B4A7005AB8271
:100A3E00020BB775F0007C1A7880C3EF9BEE9AED2F
:100A4E0099400DC3EF9BFFEE9AFEED99FDE842F043
:100A5E00DC23ACF0D0E0FFD0E0FED0E0FDAB822096
:100A6E00E7101BEB60BAEC2CFCEF33FFEE33FEED20
:100A7E0033FD020BA3E803F830E705C0F075F00074
:100A8E00EF2FFFEE33FEED33FD40B830E7C280AA04
:100A9E0074F8CC6480CCC86480C8F58204604FC3FF
:100AAE00EB9FF5F0EA9E42F0E99D42F0E89C45F09E
:100ABE00603C501DE5825FFFE582D313CB5BCBF428
:100ACE002B5582FB50280ABA002409B90020088051
:100ADE001DE5825BFBE582D313CF5FCFF4C3132FEB
:100AEE005582FF50090EBE00050DBD00010CC3EB73
:100AFE009FF5F0EA9E42F0E99D42F0E89C45F060D9
:090B0E0007CC4820E701B3EC22FA
:100B170075F020800E75F010800575F0087D007E59
:100B2700007F003392D530D503120BD6EC3340103B
:100B3700EF33FFEE33FEED33FDEC33FCD5F0ED2262
:0E0B4700E5F0247EA2D513CC92E7CDCEFF229E
:100B5500EDD2E7CD33EC3392D524814006E4FFFE98
:100B6500FDFC22FCE4CFCECDCC24E0501174FF80F7
:100B7500EDC3CC13CCCD13CDCE13CECF13CF047094
:070B8500F030D5DE020BD6B3
:100B8C00E9D2E7C933E833F892D5EDD2E7CD33ECAF
:070B9C0033FC5002B2D52228
:100BA300EC30E7100FBF000C0EBE00080DBD0004B3
:100BB3000BEB6014A2D5EB13FCED92E7FD2274FF5F
:100BC300FCFDFEFF22E480F8A2D574FF13FC7D80B8
:030BD300E480EFCC
:0E0BD600C3E49FFFE49EFEE49DFDE49CFC2230
:00000001FF
